{
  "address": "0xbf1dc21977003c6E223848884556908a296151E6",
  "abi": [
    {
      "inputs": [
        {
          "internalType": "uint64",
          "name": "_startingPrice",
          "type": "uint64"
        },
        {
          "internalType": "uint64",
          "name": "_discountRate",
          "type": "uint64"
        },
        {
          "internalType": "contract ConfidentialERC20",
          "name": "_token",
          "type": "address"
        },
        {
          "internalType": "contract ConfidentialERC20",
          "name": "_paymentToken",
          "type": "address"
        },
        {
          "internalType": "uint64",
          "name": "_amount",
          "type": "uint64"
        },
        {
          "internalType": "uint64",
          "name": "_reservePrice",
          "type": "uint64"
        },
        {
          "internalType": "uint256",
          "name": "_biddingTime",
          "type": "uint256"
        },
        {
          "internalType": "bool",
          "name": "_isStoppable",
          "type": "bool"
        }
      ],
      "stateMutability": "nonpayable",
      "type": "constructor"
    },
    {
      "inputs": [],
      "name": "AuctionAlreadyStarted",
      "type": "error"
    },
    {
      "inputs": [],
      "name": "AuctionNotStarted",
      "type": "error"
    },
    {
      "inputs": [
        {
          "internalType": "address",
          "name": "owner",
          "type": "address"
        }
      ],
      "name": "OwnableInvalidOwner",
      "type": "error"
    },
    {
      "inputs": [
        {
          "internalType": "address",
          "name": "account",
          "type": "address"
        }
      ],
      "name": "OwnableUnauthorizedAccount",
      "type": "error"
    },
    {
      "inputs": [
        {
          "internalType": "uint256",
          "name": "time",
          "type": "uint256"
        }
      ],
      "name": "TooEarly",
      "type": "error"
    },
    {
      "inputs": [
        {
          "internalType": "uint256",
          "name": "time",
          "type": "uint256"
        }
      ],
      "name": "TooLate",
      "type": "error"
    },
    {
      "anonymous": false,
      "inputs": [
        {
          "indexed": true,
          "internalType": "address",
          "name": "buyer",
          "type": "address"
        },
        {
          "indexed": false,
          "internalType": "uint256",
          "name": "pricePerToken",
          "type": "uint256"
        }
      ],
      "name": "BidSubmitted",
      "type": "event"
    },
    {
      "anonymous": false,
      "inputs": [
        {
          "indexed": true,
          "internalType": "address",
          "name": "previousOwner",
          "type": "address"
        },
        {
          "indexed": true,
          "internalType": "address",
          "name": "newOwner",
          "type": "address"
        }
      ],
      "name": "OwnershipTransferStarted",
      "type": "event"
    },
    {
      "anonymous": false,
      "inputs": [
        {
          "indexed": true,
          "internalType": "address",
          "name": "previousOwner",
          "type": "address"
        },
        {
          "indexed": true,
          "internalType": "address",
          "name": "newOwner",
          "type": "address"
        }
      ],
      "name": "OwnershipTransferred",
      "type": "event"
    },
    {
      "inputs": [],
      "name": "acceptOwnership",
      "outputs": [],
      "stateMutability": "nonpayable",
      "type": "function"
    },
    {
      "inputs": [],
      "name": "amount",
      "outputs": [
        {
          "internalType": "uint64",
          "name": "",
          "type": "uint64"
        }
      ],
      "stateMutability": "view",
      "type": "function"
    },
    {
      "inputs": [],
      "name": "auctionStart",
      "outputs": [
        {
          "internalType": "bool",
          "name": "",
          "type": "bool"
        }
      ],
      "stateMutability": "view",
      "type": "function"
    },
    {
      "inputs": [
        {
          "internalType": "einput",
          "name": "encryptedValue",
          "type": "bytes32"
        },
        {
          "internalType": "bytes",
          "name": "inputProof",
          "type": "bytes"
        }
      ],
      "name": "bid",
      "outputs": [],
      "stateMutability": "nonpayable",
      "type": "function"
    },
    {
      "inputs": [
        {
          "internalType": "address",
          "name": "",
          "type": "address"
        }
      ],
      "name": "bids",
      "outputs": [
        {
          "internalType": "euint64",
          "name": "tokenAmount",
          "type": "uint256"
        },
        {
          "internalType": "euint64",
          "name": "paidAmount",
          "type": "uint256"
        }
      ],
      "stateMutability": "view",
      "type": "function"
    },
    {
      "inputs": [
        {
          "internalType": "uint256",
          "name": "",
          "type": "uint256"
        },
        {
          "internalType": "bool",
          "name": "encAuctionStart",
          "type": "bool"
        }
      ],
      "name": "callbackBool",
      "outputs": [
        {
          "internalType": "bool",
          "name": "",
          "type": "bool"
        }
      ],
      "stateMutability": "nonpayable",
      "type": "function"
    },
    {
      "inputs": [
        {
          "internalType": "uint256",
          "name": "",
          "type": "uint256"
        },
        {
          "internalType": "uint64",
          "name": "decryptedInput",
          "type": "uint64"
        }
      ],
      "name": "callbackUint64",
      "outputs": [
        {
          "internalType": "uint64",
          "name": "",
          "type": "uint64"
        }
      ],
      "stateMutability": "nonpayable",
      "type": "function"
    },
    {
      "inputs": [],
      "name": "cancelAuction",
      "outputs": [],
      "stateMutability": "nonpayable",
      "type": "function"
    },
    {
      "inputs": [],
      "name": "claimSeller",
      "outputs": [],
      "stateMutability": "nonpayable",
      "type": "function"
    },
    {
      "inputs": [],
      "name": "claimUserRefund",
      "outputs": [],
      "stateMutability": "nonpayable",
      "type": "function"
    },
    {
      "inputs": [],
      "name": "discountRate",
      "outputs": [
        {
          "internalType": "uint64",
          "name": "",
          "type": "uint64"
        }
      ],
      "stateMutability": "view",
      "type": "function"
    },
    {
      "inputs": [],
      "name": "expiresAt",
      "outputs": [
        {
          "internalType": "uint256",
          "name": "",
          "type": "uint256"
        }
      ],
      "stateMutability": "view",
      "type": "function"
    },
    {
      "inputs": [],
      "name": "getPrice",
      "outputs": [
        {
          "internalType": "uint64",
          "name": "",
          "type": "uint64"
        }
      ],
      "stateMutability": "view",
      "type": "function"
    },
    {
      "inputs": [],
      "name": "getUserBid",
      "outputs": [
        {
          "internalType": "euint64",
          "name": "tokenAmount",
          "type": "uint256"
        },
        {
          "internalType": "euint64",
          "name": "paidAmount",
          "type": "uint256"
        }
      ],
      "stateMutability": "view",
      "type": "function"
    },
    {
      "inputs": [],
      "name": "initialize",
      "outputs": [],
      "stateMutability": "nonpayable",
      "type": "function"
    },
    {
      "inputs": [],
      "name": "manuallyStopped",
      "outputs": [
        {
          "internalType": "bool",
          "name": "",
          "type": "bool"
        }
      ],
      "stateMutability": "view",
      "type": "function"
    },
    {
      "inputs": [],
      "name": "owner",
      "outputs": [
        {
          "internalType": "address",
          "name": "",
          "type": "address"
        }
      ],
      "stateMutability": "view",
      "type": "function"
    },
    {
      "inputs": [],
      "name": "paymentToken",
      "outputs": [
        {
          "internalType": "contract ConfidentialERC20",
          "name": "",
          "type": "address"
        }
      ],
      "stateMutability": "view",
      "type": "function"
    },
    {
      "inputs": [],
      "name": "pendingOwner",
      "outputs": [
        {
          "internalType": "address",
          "name": "",
          "type": "address"
        }
      ],
      "stateMutability": "view",
      "type": "function"
    },
    {
      "inputs": [],
      "name": "renounceOwnership",
      "outputs": [],
      "stateMutability": "nonpayable",
      "type": "function"
    },
    {
      "inputs": [],
      "name": "requestTokensLeftReveal",
      "outputs": [],
      "stateMutability": "nonpayable",
      "type": "function"
    },
    {
      "inputs": [],
      "name": "reservePrice",
      "outputs": [
        {
          "internalType": "uint64",
          "name": "",
          "type": "uint64"
        }
      ],
      "stateMutability": "view",
      "type": "function"
    },
    {
      "inputs": [],
      "name": "seller",
      "outputs": [
        {
          "internalType": "address payable",
          "name": "",
          "type": "address"
        }
      ],
      "stateMutability": "view",
      "type": "function"
    },
    {
      "inputs": [],
      "name": "startAt",
      "outputs": [
        {
          "internalType": "uint256",
          "name": "",
          "type": "uint256"
        }
      ],
      "stateMutability": "view",
      "type": "function"
    },
    {
      "inputs": [],
      "name": "startingPrice",
      "outputs": [
        {
          "internalType": "uint64",
          "name": "",
          "type": "uint64"
        }
      ],
      "stateMutability": "view",
      "type": "function"
    },
    {
      "inputs": [],
      "name": "stop",
      "outputs": [],
      "stateMutability": "nonpayable",
      "type": "function"
    },
    {
      "inputs": [],
      "name": "stoppable",
      "outputs": [
        {
          "internalType": "bool",
          "name": "",
          "type": "bool"
        }
      ],
      "stateMutability": "view",
      "type": "function"
    },
    {
      "inputs": [],
      "name": "token",
      "outputs": [
        {
          "internalType": "contract ConfidentialERC20",
          "name": "",
          "type": "address"
        }
      ],
      "stateMutability": "view",
      "type": "function"
    },
    {
      "inputs": [],
      "name": "tokensLeftReveal",
      "outputs": [
        {
          "internalType": "uint64",
          "name": "",
          "type": "uint64"
        }
      ],
      "stateMutability": "view",
      "type": "function"
    },
    {
      "inputs": [
        {
          "internalType": "address",
          "name": "newOwner",
          "type": "address"
        }
      ],
      "name": "transferOwnership",
      "outputs": [],
      "stateMutability": "nonpayable",
      "type": "function"
    }
  ],
  "transactionHash": "0x4528830cbb89cea47eec7905b1b71bbe596c6024514ebe1c3b699f80fa087183",
  "args": [
    "100000000000000",
    "100000000",
    "0x40e8Aa088739445BC3a3727A724F56508899f65B",
    "0xcd7524A5bDb99B02bFb8ac4aBB80c0D3e9f15ECE",
    "1000",
    "10000000000000",
    604800,
    true
  ],
  "numDeployments": 1,
  "solcInputHash": "4e895694bb400f845ef2fb7c9cec7c72",
  "bytecode": "0x6101a060409080825234620004c45780620029ce80380380916200002482856200062b565b833961010092839181010312620004c45762000040816200064f565b92602090620000518284016200064f565b906200005f81850162000664565b926200006e6060860162000664565b946200007d608082016200064f565b956200008c60a083016200064f565b9560e060c084015193015195861515809703620004c4575f60608751620000b381620005fb565b828152828882015282898201520152855190620000d082620005fb565b73fee8407e2f5e3ee68ad77cae98c434e637f516e594858352606073687408ab54661ba0b4aef3a44156c616c6955e0793848982015273fb03be574d14c256d56f09a198b586bdfc0a9de290818b820152739d6891a6240d6130c54ae243d8005063d05fe14b928391015260018060a01b0319977fed8d60e34876f751cc8b014c560745351147d9de11b9347c854e881b128ea60090898254161790557fed8d60e34876f751cc8b014c560745351147d9de11b9347c854e881b128ea60185898254161790557fed8d60e34876f751cc8b014c560745351147d9de11b9347c854e881b128ea60290888254161790557fed8d60e34876f751cc8b014c560745351147d9de11b9347c854e881b128ea60390878254161790557f93ab6e17f2c461cce6ea5d4ec117e51dda77a64affc2b2c05f8cd440def0e7007333347831500f1e73f0cccbb95c9f86b94d7b1123878254161790553315620005e4578b9c86600b5416600b55600a5460018060a01b03973390821617600a55873391167f8be0079c531659141344cd1fd0a4f28419497f9722a3daafe3b4186f6b6457e05f80a382600d549d3360c0528260e052528a6101209d8e42905261ff0062000297854262000679565b9c6101409d8e526101609e8f5260081b169062ffffff191617600d5560018060401b03809416838102938185041490151715620005d057620002de84809216809462000679565b91169081106200058c57811562000538571115620004da576101808a81528751631ce2e8d760e31b8152918b166004830152600560f81b602483015299918690829060449082905f905af1958615620004d0575f966200048f575b5050600c859055600d80546301000000600160581b03191660189290921b6affffffffffffffff0000001691909117905560805260a05262000391916200038290309062000687565b600c5490600a54169062000687565b51936122bd9586620007118739608051868181610183015281816103d301528181610ae801528181610ce701526116b6015260a05186818161050c015281816108e7015281816114a90152818161152001528181611589015281816115dc0152611a9a015260c05186818161045f01528181610b730152611ced015260e05186818161034a0152611e7a01525185818161026e0152611e460152518481816106ce0152611e110152518381816103950152818161080701528181610aa601528181610c61015281816112c70152611de901525182818161030501528181611eaf0152611eef0152518181816104d3015281816107c40152610cb20152f35b90809492939650813d8311620004c8575b620004ac81836200062b565b81010312620004c45791519390816200039162000339565b5f80fd5b503d620004a0565b87513d5f823e3d90fd5b865162461bcd60e51b815260048101879052603160248201527f5374617274696e67207072696365206d7573742062652067726561746572207460448201527068616e207265736572766520707269636560781b6064820152608490fd5b885162461bcd60e51b815260048101899052602760248201527f52657365727665207072696365206d7573742062652067726561746572207468604482015266616e207a65726f60c81b6064820152608490fd5b885162461bcd60e51b815260048101899052601660248201527f5374617274696e6720707269636520746f6f206c6f77000000000000000000006044820152606490fd5b634e487b7160e01b5f52601160045260245ffd5b8751631e4fbdf760e01b81525f6004820152602490fd5b608081019081106001600160401b038211176200061757604052565b634e487b7160e01b5f52604160045260245ffd5b601f909101601f19168101906001600160401b038211908210176200061757604052565b51906001600160401b0382168203620004c457565b51906001600160a01b0382168203620004c457565b91908201809211620005d057565b7fed8d60e34876f751cc8b014c560745351147d9de11b9347c854e881b128ea600546001600160a01b0392908316803b15620004c4575f92836044926040519687958694631974142760e21b865260048601521660248401525af180156200070557620006f15750565b6001600160401b0381116200061757604052565b6040513d5f823e3d90fdfe60806040526004361015610011575f80fd5b5f803560e01c806307da68f514611d1157806308551a5314611cce5780631186300914611c9e578063190470ad14611b275780632c3c59f814611abe5780633013ce2914611a7b57806338263e821461126a5780634f245ef71461124757806362ea82db14611201578063715018a61461119057806379ba5097146111015780638129fc1c14610c845780638622a68914610c495780638da5cb5b14610c225780638fa8b79014610a7f57806398d5fdca14610a52578063a7e993eb146107e8578063aa8c217c146107a3578063bb4872de1461077d578063c16d7f6b146106f1578063c7446565146106b6578063cd3d4cd41461036e578063d6fbf20214610329578063db2e1eed146102e4578063dec284c1146102b9578063e30c397814610292578063e6c0e6d51461024d578063edfdc41c14610227578063f2fde38b146101aa5763fc0c546a14610164575f80fd5b346101a757806003193601126101a75760206040516001600160a01b037f0000000000000000000000000000000000000000000000000000000000000000168152f35b80fd5b50346101a75760203660031901126101a7576004356001600160a01b03808216809203610223576101d9611f11565b8173ffffffffffffffffffffffffffffffffffffffff19600b541617600b55600a54167f38d16b8cac22d99fc7c124b9cd0de2d3fa1faef420bfe791d8c362d765e227008380a380f35b8280fd5b50346101a757806003193601126101a757602060ff600d5460101c166040519015158152f35b50346101a757806003193601126101a757602060405167ffffffffffffffff7f0000000000000000000000000000000000000000000000000000000000000000168152f35b50346101a757806003193601126101a75760206001600160a01b03600b5416604051908152f35b50346101a757806003193601126101a757602067ffffffffffffffff600d5460181c16604051908152f35b50346101a757806003193601126101a757602060405167ffffffffffffffff7f0000000000000000000000000000000000000000000000000000000000000000168152f35b50346101a757806003193601126101a757602060405167ffffffffffffffff7f0000000000000000000000000000000000000000000000000000000000000000168152f35b50346101a757806003193601126101a757610387611f11565b600d5460ff8116156106a4577f0000000000000000000000000000000000000000000000000000000000000000908142109081610695575b5061067d5750600c546001600160a01b03807f0000000000000000000000000000000000000000000000000000000000000000165f805160206122718339815191528483825416803b15610679576040516346ce4e4960e11b80825260048201979097526001600160a01b03851660248201529082908290604490829084905af1801561066e57610656575b50600c5460405163a9059cbb60e01b8082527f00000000000000000000000000000000000000000000000000000000000000006001600160a01b0381166004840152602483019390935260209592939290919086908290604490829087905af1801561062a57610639575b506105076104c2611de7565b6105016104f867ffffffffffffffff7f0000000000000000000000000000000000000000000000000000000000000000166120d9565b600c5490612003565b90611f58565b9686807f000000000000000000000000000000000000000000000000000000000000000016955416803b1561063557604051918252600482018990526001600160a01b038616602483015283908290604490829084905af1801561062a57610609575b506040519081526001600160a01b03929092166004830152602482019590955293829185916044918391905af19283156105fe576105cd936105d0575b50506105bf6105b4612088565b80600c553090612207565b600c5490600a541690612207565b80f35b816105ef92903d106105f7575b6105e78183611d8c565b810190611dcf565b505f806105a7565b503d6105dd565b6040513d86823e3d90fd5b91610618819894929593611d48565b61062657919590925f61056a565b8680fd5b6040513d85823e3d90fd5b8380fd5b61064f90863d88116105f7576105e78183611d8c565b505f6104b6565b61065f90611d48565b61066a57845f61044b565b8480fd5b6040513d84823e3d90fd5b5080fd5b60249060405190630a8d68c960e21b82526004820152fd5b60ff915060101c16155f6103bf565b6040516301dff5d560e71b8152600490fd5b50346101a757806003193601126101a75760206040517f00000000000000000000000000000000000000000000000000000000000000008152f35b50346101a75760403660031901126101a75760243567ffffffffffffffff811690818103610223576001600160a01b037f93ab6e17f2c461cce6ea5d4ec117e51dda77a64affc2b2c05f8cd440def0e7005416330361022357602092506affffffffffffffff000000600d549160181b16906affffffffffffffff000000191617600d55604051908152f35b50346101a757806003193601126101a757602060ff600d5460081c166040519015158152f35b50346101a757806003193601126101a757602060405167ffffffffffffffff7f0000000000000000000000000000000000000000000000000000000000000000168152f35b50346101a757806003193601126101a757600d5460ff8116156106a4577f0000000000000000000000000000000000000000000000000000000000000000908142109081610a43575b5061067d57503381526020600e8152604082209061085f67ffffffffffffffff610859611de7565b166120d9565b918054908315610a33575b8115610a23575b826001600160a01b03926064845f805160206122918339815191525416965f604051988994859363816d57d360e01b8552600485015260248401528160448401525af1908115610a185785945f926109e1575b509060016108d3920154612003565b5f80516020612271833981519152548216917f00000000000000000000000000000000000000000000000000000000000000001690823b1561066a576040516346ce4e4960e11b8152600481018290526001600160a01b03831660248201529285908490604490829084905af180156109d657849386916109b6575b505060405163a9059cbb60e01b8152336004820152602481019190915293849160449183915af191821561062a57600e92610999575b503383525280600160408220828155015580f35b6109af90823d84116105f7576105e78183611d8c565b505f610985565b6109c39192939450611d48565b6109d157908291845f61094f565b505050fd5b6040513d87823e3d90fd5b84809296508193503d8311610a11575b6109fb8183611d8c565b81010312610a0d5751849360016108c4565b5f80fd5b503d6109f1565b6040513d5f823e3d90fd5b9050610a2d612088565b90610871565b9250610a3d612088565b9261086a565b60ff915060101c16155f610831565b50346101a757806003193601126101a7576020610a6d611de7565b67ffffffffffffffff60405191168152f35b50346101a757806003193601126101a757610a98611f11565b600d5460ff8116156106a4577f00000000000000000000000000000000000000000000000000000000000000009081421090811591610c0f575b50610bf7575080600c546001600160a01b0390817f000000000000000000000000000000000000000000000000000000000000000016915f805160206122718339815191525416803b156109d1576040516346ce4e4960e11b815260048101929092526001600160a01b038316602483015283908290604490829084905af190811561062a578391610be0575b5050600c5460405163a9059cbb60e01b81527f00000000000000000000000000000000000000000000000000000000000000006001600160a01b0316600482015260248101919091529160209183916044918391905af1801561066e57610bc4575080f35b610bdc9060203d6020116105f7576105e78183611d8c565b5080f35b610be990611d48565b610bf457815f610b5f565b50fd5b6024906040519063348f2b4160e11b82526004820152fd5b60101c60ff16151560011490505f610ad2565b50346101a757806003193601126101a75760206001600160a01b03600a5416604051908152f35b50346101a757806003193601126101a75760206040517f00000000000000000000000000000000000000000000000000000000000000008152f35b50346101a757806003193601126101a757610c9d611f11565b60ff600d54166110ef5767ffffffffffffffff7f000000000000000000000000000000000000000000000000000000000000000016610cdb816120d9565b6001600160a01b0391827f000000000000000000000000000000000000000000000000000000000000000016925f80516020612271833981519152918582845416803b15610679576040516346ce4e4960e11b8152600481018790526001600160a01b03881660248201529082908290604490829084905af1801561066e576110d7575b50506040516323b872dd60e01b8152336004820152306024820152604481019490945260209485856064818a855af19485156110745786956110ba575b50604051948580926370a0823160e01b825230600483015260249788915afa90811561107457879161108d575b50801561107f575b855f8051602061229183398151915292606485855416938a604051958694859363052896f160e01b855260048501528b840152600160f81b60448401525af1908115611074578791611047575b5082825416916040519087826044815f631ce2e8d760e31b9889835260016004840152818d8401525af1918215610a1857889186915f94611012575b505f959160449154169160405196879384928352816004840152818c8401525af1918215610a18575f92610fe1575b610e93935061212f565b60405190610ea082611d70565b60018252853681840137610eb382611dae565b526064420190814211610fce57825f94541692833b15610a0d575f604051809563155f840160e21b8252896004830152818381610ef28c820189611f25565b03925af1938415610a18578794610fb9575b5084610f53917f93ab6e17f2c461cce6ea5d4ec117e51dda77a64affc2b2c05f8cd440def0e70054169260405197889586948593634c0d927760e01b855260a0600486015260a4850190611f25565b916305878b3f60e31b90840152836044840152606483015282608483015203925af1908115610fad5750610f85578280f35b813d8311610fa6575b610f988183611d8c565b81010312610a0d575f808280f35b503d610f8e565b604051903d90823e3d90fd5b610fc4919550611d48565b5f93610f53610f04565b634e487b7160e01b875260116004528487fd5b91508683813d831161100b575b610ff88183611d8c565b81010312610a0d57610e93925191610e89565b503d610fee565b92839194508092503d8311611040575b61102c8183611d8c565b81010312610a0d575190879085905f610e5a565b503d611022565b90508581813d831161106d575b61105e8183611d8c565b81010312610a0d57515f610e1e565b503d611054565b6040513d89823e3d90fd5b50611088612088565b610dd1565b90508581813d83116110b3575b6110a48183611d8c565b81010312610a0d57515f610dc9565b503d61109a565b6110d090863d88116105f7576105e78183611d8c565b505f610d9c565b6110e090611d48565b6110eb57855f610d5f565b8580fd5b60405163628e388360e01b8152600490fd5b50346101a757806003193601126101a757600b546001600160a01b0333818316036111785773ffffffffffffffffffffffffffffffffffffffff19809216600b55600a54913390831617600a553391167f8be0079c531659141344cd1fd0a4f28419497f9722a3daafe3b4186f6b6457e05f80a380f35b60405163118cdaa760e01b8152336004820152602490fd5b50346101a757806003193601126101a7576111a9611f11565b5f6001600160a01b0373ffffffffffffffffffffffffffffffffffffffff1980600b5416600b55600a54908116600a55167f8be0079c531659141344cd1fd0a4f28419497f9722a3daafe3b4186f6b6457e08280a380f35b50346101a75760203660031901126101a7576004356001600160a01b0381168091036106795760408281928152600e602052206001815491015482519182526020820152f35b50346101a757806003193601126101a757602060ff600d54166040519015158152f35b5034610a0d576040366003190112610a0d5760243567ffffffffffffffff8111610a0d5736602382011215610a0d57806004013567ffffffffffffffff8111610a0d573660248284010111610a0d57600d5460ff8116156106a4577f00000000000000000000000000000000000000000000000000000000000000009081421090811591611a68575b50610bf75750905f6020601f1993806024604051956113198589601f8601160188611d8c565b8287520183860137830101526001600160a01b035f805160206122918339815191525416906040519283916302e817ff60e41b83526004356004840152336024840152608060448401528051908160848501525f5b828110611a505750505f60a48460209694601f858585859886010152600560f81b6064850152011681010301925af1908115610a18575f91611a1e575b506001600160a01b035f805160206122718339815191525416803b15610a0d576040516346ce4e4960e11b815260048101839052336024820152905f908290604490829084905af18015610a1857611a0b575b5061146f60208361140d611de7565b93600c5481156119fb575b80156119ed575b826001600160a01b035f8051602061229183398151915254169260405196879586948593632a1f7ab160e21b8552600485019192604091949360608401958452602084015260ff60f81b16910152565b03925af190811561062a5783916119bb575b5061148c8183611f58565b6040516370a0823160e01b815230600482015290916020826024817f00000000000000000000000000000000000000000000000000000000000000006001600160a01b03165afa9182156109d6578592611987575b50846001600160a01b035f805160206122718339815191525416803b15610679576040516346ce4e4960e11b8152600481018690526001600160a01b037f00000000000000000000000000000000000000000000000000000000000000001660248201529082908290604490829084905af1801561066e57611973575b50506040516323b872dd60e01b815233600482015230602482015260448101849052602081606481897f00000000000000000000000000000000000000000000000000000000000000006001600160a01b03165af1801561196857611949575b506040516370a0823160e01b815230600482015285906020816024817f00000000000000000000000000000000000000000000000000000000000000006001600160a01b03165afa90811561066e578291611912575b509061162561168694602093612003565b948086918715611902575b156118f4575b826001600160a01b035f8051602061229183398151915254169260405197889586948593630d7c62eb60e31b8552600485019192604091949360608401958452602084015260ff60f81b16910152565b03925af19081156109d65785916118be575b6116ab92506116a5612088565b9161212f565b906001600160a01b037f00000000000000000000000000000000000000000000000000000000000000001691846001600160a01b035f805160206122718339815191525416803b15610679576040516346ce4e4960e11b8152600481018490526001600160a01b03861660248201529082908290604490829084905af1801561066e576118aa575b505060405163a9059cbb60e01b815233600482015260248101829052926020908490604490829089905af19182156109d65761182e936105b49361188b575b50338652600e908160205260408720805415155f1461187f57506117bd903388528260205260016117a760408a205486612182565b338a528460205260408a20908155015490612182565b3387528160205260016040882001555b338652806020526117e2306040882054612207565b338652806020526117fa306001604089200154612207565b3386528060205261180f336040882054612207565b338652602052611826336001604088200154612207565b600c54612003565b611846600c546001600160a01b03600a541690612207565b67ffffffffffffffff604051911681527f0862512267aa2317caa9475b7e771425e6b897509aade0be0d8fc6f5ce5fdd1860203392a280f35b838155600101556117cd565b6118a39060203d6020116105f7576105e78183611d8c565b505f611772565b6118b390611d48565b61066a57845f611733565b90506020823d6020116118ec575b816118d960209383611d8c565b81010312610a0d576116ab915190611698565b3d91506118cc565b506118fd612088565b611636565b915061190c612088565b91611630565b9150506020813d602011611941575b8161192e60209383611d8c565b81010312610a0d57518590611625611614565b3d9150611921565b6119619060203d6020116105f7576105e78183611d8c565b505f6115be565b6040513d88823e3d90fd5b61197c90611d48565b61066a57845f61155e565b9091506020813d6020116119b3575b816119a360209383611d8c565b81010312610a0d5751905f6114e1565b3d9150611996565b90506020813d6020116119e5575b816119d660209383611d8c565b81010312610a0d57515f611481565b3d91506119c9565b506119f6612088565b61141f565b9050611a05612088565b90611418565b611a16919250611d48565b5f905f6113fe565b90506020813d602011611a48575b81611a3960209383611d8c565b81010312610a0d57515f6113ab565b3d9150611a2c565b602082820181015160a489840101528795500161136e565b60101c60ff16151560011490505f6112f3565b34610a0d575f366003190112610a0d5760206040516001600160a01b037f0000000000000000000000000000000000000000000000000000000000000000168152f35b34610a0d576040366003190112610a0d57602435801515809103610a0d576001600160a01b037f93ab6e17f2c461cce6ea5d4ec117e51dda77a64affc2b2c05f8cd440def0e70054163303610a0d5760209060ff19600d541660ff821617600d55604051908152f35b34610a0d575f366003190112610a0d57611b3f611f11565b604051611b4b81611d70565b60018152602090813681830137600c54611b6482611dae565b526064420190814211611c8a575f906001600160a01b0390815f80516020612271833981519152541691823b15610a0d575f604051809463155f840160e21b8252886004830152818381611bbb6024820189611f25565b03925af1928315610a18578693611c71575b5090611c1c917f93ab6e17f2c461cce6ea5d4ec117e51dda77a64affc2b2c05f8cd440def0e70054169084604051809781958294634c0d927760e01b845260a0600485015260a4840190611f25565b9063c16d7f6b60e01b6024840152836044840152606483015282608483015203925af1908115610fad5750611c4d57005b813d8311611c6a575b611c608183611d8c565b81010312610a0d57005b503d611c56565b611c1c92919450611c8190611d48565b5f939091611bcd565b634e487b7160e01b5f52601160045260245ffd5b34610a0d575f366003190112610a0d57335f52600e6020526040805f206001815491015482519182526020820152f35b34610a0d575f366003190112610a0d5760206040516001600160a01b037f0000000000000000000000000000000000000000000000000000000000000000168152f35b34610a0d575f366003190112610a0d57611d29611f11565b600d5460ff8160081c1615610a0d5762ff000019166201000017600d55005b67ffffffffffffffff8111611d5c57604052565b634e487b7160e01b5f52604160045260245ffd5b6040810190811067ffffffffffffffff821117611d5c57604052565b90601f8019910116810190811067ffffffffffffffff821117611d5c57604052565b805115611dbb5760200190565b634e487b7160e01b5f52603260045260245ffd5b90816020910312610a0d57518015158103610a0d5790565b7f0000000000000000000000000000000000000000000000000000000000000000421015611eed577f00000000000000000000000000000000000000000000000000000000000000004203428111611c8a5767ffffffffffffffff90817f000000000000000000000000000000000000000000000000000000000000000016818102918183041490151715611c8a5781167f0000000000000000000000000000000000000000000000000000000000000000821681811115611ee45703818111611c8a57905b7f0000000000000000000000000000000000000000000000000000000000000000908082169083161115611edf575090565b905090565b50505f90611ead565b7f000000000000000000000000000000000000000000000000000000000000000090565b6001600160a01b03600a5416330361117857565b9081518082526020808093019301915f5b828110611f44575050505090565b835185529381019392810192600101611f36565b60209067ffffffffffffffff928015611ff1575b6064905f6001600160a01b035f805160206122918339815191525416604051968795869463816d57d360e01b86526004860152166024840152600160f81b60448401525af1908115610a18575f91611fc2575090565b90506020813d602011611fe9575b81611fdd60209383611d8c565b81010312610a0d575190565b3d9150611fd0565b506064611ffc612088565b9050611f6c565b908115612078575b8015612066575b60209060646001600160a01b035f805160206122918339815191525416935f6040519586948593638c14cc2160e01b8552600485015260248401528160448401525af1908115610a18575f91611fc2575090565b506020612071612088565b9050612012565b9050612082612088565b9061200b565b5f60206001600160a01b035f805160206122918339815191525416604460405180948193631ce2e8d760e31b8352816004840152600560f81b60248401525af1908115610a18575f91611fc2575090565b5f8051602061229183398151915254604051631ce2e8d760e31b81526004810192909252600560f81b6024830152602090829060449082905f906001600160a01b03165af1908115610a18575f91611fc2575090565b9060646020925f6001600160a01b035f805160206122918339815191525416604051968795869463cb3b940760e01b86526004860152602485015260448401525af1908115610a18575f91611fc2575090565b9081156121f7575b80156121e5575b60209060646001600160a01b035f805160206122918339815191525416935f604051958694859363f953e42760e01b8552600485015260248401528160448401525af1908115610a18575f91611fc2575090565b5060206121f0612088565b9050612191565b9050612201612088565b9061218a565b6001600160a01b035f80516020612271833981519152541691823b15610a0d57604051631974142760e21b815260048101929092526001600160a01b03166024820152905f908290604490829084905af18015610a18576122655750565b61226e90611d48565b56feed8d60e34876f751cc8b014c560745351147d9de11b9347c854e881b128ea600ed8d60e34876f751cc8b014c560745351147d9de11b9347c854e881b128ea601a164736f6c6343000818000a",
  "devdoc": {
    "details": "Uses FHEVM for handling encrypted values and transactions",
    "errors": {
      "OwnableInvalidOwner(address)": [
        {
          "details": "The owner is not a valid owner account. (eg. `address(0)`)"
        }
      ],
      "OwnableUnauthorizedAccount(address)": [
        {
          "details": "The caller account is not authorized to perform an operation."
        }
      ],
      "TooEarly(uint256)": [
        {
          "details": "Includes the time when the function can be called"
        }
      ],
      "TooLate(uint256)": [
        {
          "details": "Includes the time after which the function cannot be called"
        }
      ]
    },
    "events": {
      "BidSubmitted(address,uint256)": {
        "params": {
          "buyer": "Address of the bidder",
          "pricePerToken": "Price per token at the time of bid"
        }
      }
    },
    "kind": "dev",
    "methods": {
      "acceptOwnership()": {
        "details": "The new owner accepts the ownership transfer."
      },
      "bid(bytes32,bytes)": {
        "details": "Handles bid logic including refunds from previous bids",
        "params": {
          "encryptedValue": "Encrypted amount of tokens to bid for",
          "inputProof": "Zero-knowledge proof for the encrypted input"
        }
      },
      "callbackBool(uint256,bool)": {
        "details": "Only callable by the Gateway contract",
        "params": {
          "encAuctionStart": "The decrypted boolean"
        },
        "returns": {
          "_0": "The decrypted value"
        }
      },
      "callbackUint64(uint256,uint64)": {
        "details": "Only callable by the Gateway contract",
        "params": {
          "decryptedInput": "The decrypted 64-bit unsigned integer"
        },
        "returns": {
          "_0": "The decrypted value"
        }
      },
      "cancelAuction()": {
        "details": "Only owner can cancel before auction ends"
      },
      "claimSeller()": {
        "details": "Transfers all remaining tokens and payments to seller"
      },
      "claimUserRefund()": {
        "details": "Transfers tokens to bidder and refunds excess payment based on final price"
      },
      "constructor": {
        "params": {
          "_amount": "Total amount of tokens to auction",
          "_biddingTime": "Duration of the auction in seconds",
          "_discountRate": "Rate at which price decreases",
          "_isStoppable": "Whether the auction can be stopped manually",
          "_paymentToken": "Address of token used for payment",
          "_reservePrice": "Minimum price per token",
          "_startingPrice": "Initial price per token",
          "_token": "Address of token being auctioned"
        }
      },
      "getPrice()": {
        "details": "Price decreases linearly over time until it reaches reserve price",
        "returns": {
          "_0": "Current price per token in payment token units"
        }
      },
      "getUserBid()": {
        "details": "Returns the decrypted values of token amount and paid amount",
        "returns": {
          "paidAmount": "Amount paid for the tokens",
          "tokenAmount": "Amount of tokens bid for"
        }
      },
      "initialize()": {
        "details": "Can only be called once by the owner"
      },
      "owner()": {
        "details": "Returns the address of the current owner."
      },
      "pendingOwner()": {
        "details": "Returns the address of the pending owner."
      },
      "renounceOwnership()": {
        "details": "Leaves the contract without owner. It will not be possible to call `onlyOwner` functions. Can only be called by the current owner. NOTE: Renouncing ownership will leave the contract without an owner, thereby disabling any functionality that is only available to the owner."
      },
      "requestTokensLeftReveal()": {
        "details": "Only owner can request decryption"
      },
      "stop()": {
        "details": "Can only be called by the owner and if the auction is stoppable"
      },
      "transferOwnership(address)": {
        "details": "Starts the ownership transfer of the contract to a new account. Replaces the pending transfer if there is one. Can only be called by the current owner. Setting `newOwner` to the zero address is allowed; this can be used to cancel an initiated ownership transfer."
      }
    },
    "title": "Dutch Auction for Selling Confidential ERC20 Tokens",
    "version": 1
  },
  "userdoc": {
    "errors": {
      "AuctionAlreadyStarted()": [
        {
          "notice": "Error thrown when trying to start an already started auction"
        }
      ],
      "AuctionNotStarted()": [
        {
          "notice": "Error thrown when trying to interact with an unstarted auction"
        }
      ],
      "TooEarly(uint256)": [
        {
          "notice": "Error thrown when a function is called too early"
        }
      ],
      "TooLate(uint256)": [
        {
          "notice": "Error thrown when a function is called too late"
        }
      ]
    },
    "events": {
      "BidSubmitted(address,uint256)": {
        "notice": "Emitted when a bid is submitted"
      }
    },
    "kind": "user",
    "methods": {
      "amount()": {
        "notice": "Total amount of tokens being auctioned"
      },
      "auctionStart()": {
        "notice": "Flag indicating if the auction has started"
      },
      "bid(bytes32,bytes)": {
        "notice": "Submit a bid for tokens"
      },
      "bids(address)": {
        "notice": "Mapping of addresses to their bids"
      },
      "callbackBool(uint256,bool)": {
        "notice": "Callback function for boolean decryption"
      },
      "callbackUint64(uint256,uint64)": {
        "notice": "Callback function for 64-bit unsigned integer decryption"
      },
      "cancelAuction()": {
        "notice": "Cancel the auction and return tokens to seller"
      },
      "claimSeller()": {
        "notice": "Claim proceeds for the seller after auction ends"
      },
      "claimUserRefund()": {
        "notice": "Claim tokens and refund for a bidder after auction ends"
      },
      "constructor": {
        "notice": "Creates a new Dutch auction contract"
      },
      "discountRate()": {
        "notice": "Rate at which the price decreases"
      },
      "expiresAt()": {
        "notice": "Timestamp when the auction ends"
      },
      "getPrice()": {
        "notice": "Gets the current price per token"
      },
      "getUserBid()": {
        "notice": "Get the user's current bid information"
      },
      "initialize()": {
        "notice": "Initializes the auction by transferring tokens from seller"
      },
      "manuallyStopped()": {
        "notice": "Flag to check if the auction has been manually stopped"
      },
      "paymentToken()": {
        "notice": "The token used for payments"
      },
      "requestTokensLeftReveal()": {
        "notice": "Request decryption of remaining tokens"
      },
      "reservePrice()": {
        "notice": "Minimum price per token"
      },
      "seller()": {
        "notice": "Address of the seller"
      },
      "startAt()": {
        "notice": "Timestamp when the auction starts"
      },
      "startingPrice()": {
        "notice": "Initial price per token"
      },
      "stop()": {
        "notice": "Manually stop the auction"
      },
      "stoppable()": {
        "notice": "Flag to determine if the auction can be stopped manually"
      },
      "token()": {
        "notice": "The ERC20 token being auctioned"
      },
      "tokensLeftReveal()": {
        "notice": "Decrypted value of remaining tokens"
      }
    },
    "notice": "Implements a Dutch auction mechanism for selling confidential ERC20 tokens",
    "version": 1
  },
  "storageLayout": {
    "storage": [
      {
        "astId": 5027,
        "contract": "contracts/dutchAuctionConfidential/DutchAuctionSellConfERC20NoRefund.sol:DutchAuctionSellingConfidentialERC20NoRefund",
        "label": "paramsEBool",
        "offset": 0,
        "slot": "0",
        "type": "t_mapping(t_uint256,t_array(t_userDefinedValueType(ebool)7769)dyn_storage)"
      },
      {
        "astId": 5033,
        "contract": "contracts/dutchAuctionConfidential/DutchAuctionSellConfERC20NoRefund.sol:DutchAuctionSellingConfidentialERC20NoRefund",
        "label": "paramsEUint4",
        "offset": 0,
        "slot": "1",
        "type": "t_mapping(t_uint256,t_array(t_userDefinedValueType(euint4)7771)dyn_storage)"
      },
      {
        "astId": 5039,
        "contract": "contracts/dutchAuctionConfidential/DutchAuctionSellConfERC20NoRefund.sol:DutchAuctionSellingConfidentialERC20NoRefund",
        "label": "paramsEUint8",
        "offset": 0,
        "slot": "2",
        "type": "t_mapping(t_uint256,t_array(t_userDefinedValueType(euint8)7773)dyn_storage)"
      },
      {
        "astId": 5045,
        "contract": "contracts/dutchAuctionConfidential/DutchAuctionSellConfERC20NoRefund.sol:DutchAuctionSellingConfidentialERC20NoRefund",
        "label": "paramsEUint16",
        "offset": 0,
        "slot": "3",
        "type": "t_mapping(t_uint256,t_array(t_userDefinedValueType(euint16)7775)dyn_storage)"
      },
      {
        "astId": 5051,
        "contract": "contracts/dutchAuctionConfidential/DutchAuctionSellConfERC20NoRefund.sol:DutchAuctionSellingConfidentialERC20NoRefund",
        "label": "paramsEUint32",
        "offset": 0,
        "slot": "4",
        "type": "t_mapping(t_uint256,t_array(t_userDefinedValueType(euint32)7777)dyn_storage)"
      },
      {
        "astId": 5057,
        "contract": "contracts/dutchAuctionConfidential/DutchAuctionSellConfERC20NoRefund.sol:DutchAuctionSellingConfidentialERC20NoRefund",
        "label": "paramsEUint64",
        "offset": 0,
        "slot": "5",
        "type": "t_mapping(t_uint256,t_array(t_userDefinedValueType(euint64)7779)dyn_storage)"
      },
      {
        "astId": 5063,
        "contract": "contracts/dutchAuctionConfidential/DutchAuctionSellConfERC20NoRefund.sol:DutchAuctionSellingConfidentialERC20NoRefund",
        "label": "paramsEAddress",
        "offset": 0,
        "slot": "6",
        "type": "t_mapping(t_uint256,t_array(t_userDefinedValueType(eaddress)7785)dyn_storage)"
      },
      {
        "astId": 5068,
        "contract": "contracts/dutchAuctionConfidential/DutchAuctionSellConfERC20NoRefund.sol:DutchAuctionSellingConfidentialERC20NoRefund",
        "label": "paramsAddress",
        "offset": 0,
        "slot": "7",
        "type": "t_mapping(t_uint256,t_array(t_address)dyn_storage)"
      },
      {
        "astId": 5073,
        "contract": "contracts/dutchAuctionConfidential/DutchAuctionSellConfERC20NoRefund.sol:DutchAuctionSellingConfidentialERC20NoRefund",
        "label": "paramsUint256",
        "offset": 0,
        "slot": "8",
        "type": "t_mapping(t_uint256,t_array(t_uint256)dyn_storage)"
      },
      {
        "astId": 5078,
        "contract": "contracts/dutchAuctionConfidential/DutchAuctionSellConfERC20NoRefund.sol:DutchAuctionSellingConfidentialERC20NoRefund",
        "label": "requestedHandles",
        "offset": 0,
        "slot": "9",
        "type": "t_mapping(t_uint256,t_array(t_uint256)dyn_storage)"
      },
      {
        "astId": 8,
        "contract": "contracts/dutchAuctionConfidential/DutchAuctionSellConfERC20NoRefund.sol:DutchAuctionSellingConfidentialERC20NoRefund",
        "label": "_owner",
        "offset": 0,
        "slot": "10",
        "type": "t_address"
      },
      {
        "astId": 156,
        "contract": "contracts/dutchAuctionConfidential/DutchAuctionSellConfERC20NoRefund.sol:DutchAuctionSellingConfidentialERC20NoRefund",
        "label": "_pendingOwner",
        "offset": 0,
        "slot": "11",
        "type": "t_address"
      },
      {
        "astId": 2232,
        "contract": "contracts/dutchAuctionConfidential/DutchAuctionSellConfERC20NoRefund.sol:DutchAuctionSellingConfidentialERC20NoRefund",
        "label": "tokensLeft",
        "offset": 0,
        "slot": "12",
        "type": "t_userDefinedValueType(euint64)7779"
      },
      {
        "astId": 2257,
        "contract": "contracts/dutchAuctionConfidential/DutchAuctionSellConfERC20NoRefund.sol:DutchAuctionSellingConfidentialERC20NoRefund",
        "label": "auctionStart",
        "offset": 0,
        "slot": "13",
        "type": "t_bool"
      },
      {
        "astId": 2260,
        "contract": "contracts/dutchAuctionConfidential/DutchAuctionSellConfERC20NoRefund.sol:DutchAuctionSellingConfidentialERC20NoRefund",
        "label": "stoppable",
        "offset": 1,
        "slot": "13",
        "type": "t_bool"
      },
      {
        "astId": 2264,
        "contract": "contracts/dutchAuctionConfidential/DutchAuctionSellConfERC20NoRefund.sol:DutchAuctionSellingConfidentialERC20NoRefund",
        "label": "manuallyStopped",
        "offset": 2,
        "slot": "13",
        "type": "t_bool"
      },
      {
        "astId": 2267,
        "contract": "contracts/dutchAuctionConfidential/DutchAuctionSellConfERC20NoRefund.sol:DutchAuctionSellingConfidentialERC20NoRefund",
        "label": "tokensLeftReveal",
        "offset": 3,
        "slot": "13",
        "type": "t_uint64"
      },
      {
        "astId": 2281,
        "contract": "contracts/dutchAuctionConfidential/DutchAuctionSellConfERC20NoRefund.sol:DutchAuctionSellingConfidentialERC20NoRefund",
        "label": "bids",
        "offset": 0,
        "slot": "14",
        "type": "t_mapping(t_address,t_struct(Bid)2275_storage)"
      }
    ],
    "types": {
      "t_address": {
        "encoding": "inplace",
        "label": "address",
        "numberOfBytes": "20"
      },
      "t_array(t_address)dyn_storage": {
        "base": "t_address",
        "encoding": "dynamic_array",
        "label": "address[]",
        "numberOfBytes": "32"
      },
      "t_array(t_uint256)dyn_storage": {
        "base": "t_uint256",
        "encoding": "dynamic_array",
        "label": "uint256[]",
        "numberOfBytes": "32"
      },
      "t_array(t_userDefinedValueType(eaddress)7785)dyn_storage": {
        "base": "t_userDefinedValueType(eaddress)7785",
        "encoding": "dynamic_array",
        "label": "eaddress[]",
        "numberOfBytes": "32"
      },
      "t_array(t_userDefinedValueType(ebool)7769)dyn_storage": {
        "base": "t_userDefinedValueType(ebool)7769",
        "encoding": "dynamic_array",
        "label": "ebool[]",
        "numberOfBytes": "32"
      },
      "t_array(t_userDefinedValueType(euint16)7775)dyn_storage": {
        "base": "t_userDefinedValueType(euint16)7775",
        "encoding": "dynamic_array",
        "label": "euint16[]",
        "numberOfBytes": "32"
      },
      "t_array(t_userDefinedValueType(euint32)7777)dyn_storage": {
        "base": "t_userDefinedValueType(euint32)7777",
        "encoding": "dynamic_array",
        "label": "euint32[]",
        "numberOfBytes": "32"
      },
      "t_array(t_userDefinedValueType(euint4)7771)dyn_storage": {
        "base": "t_userDefinedValueType(euint4)7771",
        "encoding": "dynamic_array",
        "label": "euint4[]",
        "numberOfBytes": "32"
      },
      "t_array(t_userDefinedValueType(euint64)7779)dyn_storage": {
        "base": "t_userDefinedValueType(euint64)7779",
        "encoding": "dynamic_array",
        "label": "euint64[]",
        "numberOfBytes": "32"
      },
      "t_array(t_userDefinedValueType(euint8)7773)dyn_storage": {
        "base": "t_userDefinedValueType(euint8)7773",
        "encoding": "dynamic_array",
        "label": "euint8[]",
        "numberOfBytes": "32"
      },
      "t_bool": {
        "encoding": "inplace",
        "label": "bool",
        "numberOfBytes": "1"
      },
      "t_mapping(t_address,t_struct(Bid)2275_storage)": {
        "encoding": "mapping",
        "key": "t_address",
        "label": "mapping(address => struct DutchAuctionSellingConfidentialERC20NoRefund.Bid)",
        "numberOfBytes": "32",
        "value": "t_struct(Bid)2275_storage"
      },
      "t_mapping(t_uint256,t_array(t_address)dyn_storage)": {
        "encoding": "mapping",
        "key": "t_uint256",
        "label": "mapping(uint256 => address[])",
        "numberOfBytes": "32",
        "value": "t_array(t_address)dyn_storage"
      },
      "t_mapping(t_uint256,t_array(t_uint256)dyn_storage)": {
        "encoding": "mapping",
        "key": "t_uint256",
        "label": "mapping(uint256 => uint256[])",
        "numberOfBytes": "32",
        "value": "t_array(t_uint256)dyn_storage"
      },
      "t_mapping(t_uint256,t_array(t_userDefinedValueType(eaddress)7785)dyn_storage)": {
        "encoding": "mapping",
        "key": "t_uint256",
        "label": "mapping(uint256 => eaddress[])",
        "numberOfBytes": "32",
        "value": "t_array(t_userDefinedValueType(eaddress)7785)dyn_storage"
      },
      "t_mapping(t_uint256,t_array(t_userDefinedValueType(ebool)7769)dyn_storage)": {
        "encoding": "mapping",
        "key": "t_uint256",
        "label": "mapping(uint256 => ebool[])",
        "numberOfBytes": "32",
        "value": "t_array(t_userDefinedValueType(ebool)7769)dyn_storage"
      },
      "t_mapping(t_uint256,t_array(t_userDefinedValueType(euint16)7775)dyn_storage)": {
        "encoding": "mapping",
        "key": "t_uint256",
        "label": "mapping(uint256 => euint16[])",
        "numberOfBytes": "32",
        "value": "t_array(t_userDefinedValueType(euint16)7775)dyn_storage"
      },
      "t_mapping(t_uint256,t_array(t_userDefinedValueType(euint32)7777)dyn_storage)": {
        "encoding": "mapping",
        "key": "t_uint256",
        "label": "mapping(uint256 => euint32[])",
        "numberOfBytes": "32",
        "value": "t_array(t_userDefinedValueType(euint32)7777)dyn_storage"
      },
      "t_mapping(t_uint256,t_array(t_userDefinedValueType(euint4)7771)dyn_storage)": {
        "encoding": "mapping",
        "key": "t_uint256",
        "label": "mapping(uint256 => euint4[])",
        "numberOfBytes": "32",
        "value": "t_array(t_userDefinedValueType(euint4)7771)dyn_storage"
      },
      "t_mapping(t_uint256,t_array(t_userDefinedValueType(euint64)7779)dyn_storage)": {
        "encoding": "mapping",
        "key": "t_uint256",
        "label": "mapping(uint256 => euint64[])",
        "numberOfBytes": "32",
        "value": "t_array(t_userDefinedValueType(euint64)7779)dyn_storage"
      },
      "t_mapping(t_uint256,t_array(t_userDefinedValueType(euint8)7773)dyn_storage)": {
        "encoding": "mapping",
        "key": "t_uint256",
        "label": "mapping(uint256 => euint8[])",
        "numberOfBytes": "32",
        "value": "t_array(t_userDefinedValueType(euint8)7773)dyn_storage"
      },
      "t_struct(Bid)2275_storage": {
        "encoding": "inplace",
        "label": "struct DutchAuctionSellingConfidentialERC20NoRefund.Bid",
        "members": [
          {
            "astId": 2271,
            "contract": "contracts/dutchAuctionConfidential/DutchAuctionSellConfERC20NoRefund.sol:DutchAuctionSellingConfidentialERC20NoRefund",
            "label": "tokenAmount",
            "offset": 0,
            "slot": "0",
            "type": "t_userDefinedValueType(euint64)7779"
          },
          {
            "astId": 2274,
            "contract": "contracts/dutchAuctionConfidential/DutchAuctionSellConfERC20NoRefund.sol:DutchAuctionSellingConfidentialERC20NoRefund",
            "label": "paidAmount",
            "offset": 0,
            "slot": "1",
            "type": "t_userDefinedValueType(euint64)7779"
          }
        ],
        "numberOfBytes": "64"
      },
      "t_uint256": {
        "encoding": "inplace",
        "label": "uint256",
        "numberOfBytes": "32"
      },
      "t_uint64": {
        "encoding": "inplace",
        "label": "uint64",
        "numberOfBytes": "8"
      },
      "t_userDefinedValueType(eaddress)7785": {
        "encoding": "inplace",
        "label": "eaddress",
        "numberOfBytes": "32"
      },
      "t_userDefinedValueType(ebool)7769": {
        "encoding": "inplace",
        "label": "ebool",
        "numberOfBytes": "32"
      },
      "t_userDefinedValueType(euint16)7775": {
        "encoding": "inplace",
        "label": "euint16",
        "numberOfBytes": "32"
      },
      "t_userDefinedValueType(euint32)7777": {
        "encoding": "inplace",
        "label": "euint32",
        "numberOfBytes": "32"
      },
      "t_userDefinedValueType(euint4)7771": {
        "encoding": "inplace",
        "label": "euint4",
        "numberOfBytes": "32"
      },
      "t_userDefinedValueType(euint64)7779": {
        "encoding": "inplace",
        "label": "euint64",
        "numberOfBytes": "32"
      },
      "t_userDefinedValueType(euint8)7773": {
        "encoding": "inplace",
        "label": "euint8",
        "numberOfBytes": "32"
      }
    }
  }
}