{
  "address": "0xCfb2bd137936faB9c760bCff8E676A94A69809a6",
  "abi": [
    {
      "inputs": [
        {
          "internalType": "string",
          "name": "name_",
          "type": "string"
        },
        {
          "internalType": "string",
          "name": "symbol_",
          "type": "string"
        }
      ],
      "stateMutability": "nonpayable",
      "type": "constructor"
    },
    {
      "inputs": [
        {
          "internalType": "address",
          "name": "spender",
          "type": "address"
        },
        {
          "internalType": "uint256",
          "name": "allowance",
          "type": "uint256"
        },
        {
          "internalType": "uint256",
          "name": "needed",
          "type": "uint256"
        }
      ],
      "name": "ERC20InsufficientAllowance",
      "type": "error"
    },
    {
      "inputs": [
        {
          "internalType": "address",
          "name": "sender",
          "type": "address"
        },
        {
          "internalType": "uint256",
          "name": "balance",
          "type": "uint256"
        },
        {
          "internalType": "uint256",
          "name": "needed",
          "type": "uint256"
        }
      ],
      "name": "ERC20InsufficientBalance",
      "type": "error"
    },
    {
      "inputs": [
        {
          "internalType": "address",
          "name": "approver",
          "type": "address"
        }
      ],
      "name": "ERC20InvalidApprover",
      "type": "error"
    },
    {
      "inputs": [
        {
          "internalType": "address",
          "name": "receiver",
          "type": "address"
        }
      ],
      "name": "ERC20InvalidReceiver",
      "type": "error"
    },
    {
      "inputs": [
        {
          "internalType": "address",
          "name": "sender",
          "type": "address"
        }
      ],
      "name": "ERC20InvalidSender",
      "type": "error"
    },
    {
      "inputs": [
        {
          "internalType": "address",
          "name": "spender",
          "type": "address"
        }
      ],
      "name": "ERC20InvalidSpender",
      "type": "error"
    },
    {
      "inputs": [],
      "name": "ErrorIndexInvalid",
      "type": "error"
    },
    {
      "inputs": [],
      "name": "ErrorIndexIsNull",
      "type": "error"
    },
    {
      "inputs": [
        {
          "internalType": "address",
          "name": "owner",
          "type": "address"
        }
      ],
      "name": "OwnableInvalidOwner",
      "type": "error"
    },
    {
      "inputs": [
        {
          "internalType": "address",
          "name": "account",
          "type": "address"
        }
      ],
      "name": "OwnableUnauthorizedAccount",
      "type": "error"
    },
    {
      "inputs": [],
      "name": "TFHESenderNotAllowed",
      "type": "error"
    },
    {
      "inputs": [],
      "name": "TotalNumberErrorCodesEqualToZero",
      "type": "error"
    },
    {
      "anonymous": false,
      "inputs": [
        {
          "indexed": true,
          "internalType": "address",
          "name": "owner",
          "type": "address"
        },
        {
          "indexed": true,
          "internalType": "address",
          "name": "spender",
          "type": "address"
        },
        {
          "indexed": false,
          "internalType": "uint256",
          "name": "placeholder",
          "type": "uint256"
        }
      ],
      "name": "Approval",
      "type": "event"
    },
    {
      "anonymous": false,
      "inputs": [
        {
          "indexed": true,
          "internalType": "address",
          "name": "to",
          "type": "address"
        },
        {
          "indexed": false,
          "internalType": "uint64",
          "name": "amount",
          "type": "uint64"
        }
      ],
      "name": "Mint",
      "type": "event"
    },
    {
      "anonymous": false,
      "inputs": [
        {
          "indexed": true,
          "internalType": "address",
          "name": "previousOwner",
          "type": "address"
        },
        {
          "indexed": true,
          "internalType": "address",
          "name": "newOwner",
          "type": "address"
        }
      ],
      "name": "OwnershipTransferStarted",
      "type": "event"
    },
    {
      "anonymous": false,
      "inputs": [
        {
          "indexed": true,
          "internalType": "address",
          "name": "previousOwner",
          "type": "address"
        },
        {
          "indexed": true,
          "internalType": "address",
          "name": "newOwner",
          "type": "address"
        }
      ],
      "name": "OwnershipTransferred",
      "type": "event"
    },
    {
      "anonymous": false,
      "inputs": [
        {
          "indexed": true,
          "internalType": "address",
          "name": "from",
          "type": "address"
        },
        {
          "indexed": true,
          "internalType": "address",
          "name": "to",
          "type": "address"
        },
        {
          "indexed": false,
          "internalType": "uint256",
          "name": "transferId",
          "type": "uint256"
        }
      ],
      "name": "Transfer",
      "type": "event"
    },
    {
      "inputs": [],
      "name": "acceptOwnership",
      "outputs": [],
      "stateMutability": "nonpayable",
      "type": "function"
    },
    {
      "inputs": [
        {
          "internalType": "address",
          "name": "owner",
          "type": "address"
        },
        {
          "internalType": "address",
          "name": "spender",
          "type": "address"
        }
      ],
      "name": "allowance",
      "outputs": [
        {
          "internalType": "euint64",
          "name": "",
          "type": "uint256"
        }
      ],
      "stateMutability": "view",
      "type": "function"
    },
    {
      "inputs": [
        {
          "internalType": "address",
          "name": "spender",
          "type": "address"
        },
        {
          "internalType": "euint64",
          "name": "amount",
          "type": "uint256"
        }
      ],
      "name": "approve",
      "outputs": [
        {
          "internalType": "bool",
          "name": "",
          "type": "bool"
        }
      ],
      "stateMutability": "nonpayable",
      "type": "function"
    },
    {
      "inputs": [
        {
          "internalType": "address",
          "name": "spender",
          "type": "address"
        },
        {
          "internalType": "einput",
          "name": "encryptedAmount",
          "type": "bytes32"
        },
        {
          "internalType": "bytes",
          "name": "inputProof",
          "type": "bytes"
        }
      ],
      "name": "approve",
      "outputs": [
        {
          "internalType": "bool",
          "name": "",
          "type": "bool"
        }
      ],
      "stateMutability": "nonpayable",
      "type": "function"
    },
    {
      "inputs": [
        {
          "internalType": "address",
          "name": "account",
          "type": "address"
        }
      ],
      "name": "balanceOf",
      "outputs": [
        {
          "internalType": "euint64",
          "name": "",
          "type": "uint256"
        }
      ],
      "stateMutability": "view",
      "type": "function"
    },
    {
      "inputs": [],
      "name": "decimals",
      "outputs": [
        {
          "internalType": "uint8",
          "name": "",
          "type": "uint8"
        }
      ],
      "stateMutability": "view",
      "type": "function"
    },
    {
      "inputs": [
        {
          "internalType": "uint256",
          "name": "transferId",
          "type": "uint256"
        }
      ],
      "name": "getErrorCodeForTransferId",
      "outputs": [
        {
          "internalType": "euint8",
          "name": "errorCode",
          "type": "uint256"
        }
      ],
      "stateMutability": "view",
      "type": "function"
    },
    {
      "inputs": [
        {
          "internalType": "address",
          "name": "to",
          "type": "address"
        },
        {
          "internalType": "uint64",
          "name": "amount",
          "type": "uint64"
        }
      ],
      "name": "mint",
      "outputs": [],
      "stateMutability": "nonpayable",
      "type": "function"
    },
    {
      "inputs": [],
      "name": "name",
      "outputs": [
        {
          "internalType": "string",
          "name": "",
          "type": "string"
        }
      ],
      "stateMutability": "view",
      "type": "function"
    },
    {
      "inputs": [],
      "name": "owner",
      "outputs": [
        {
          "internalType": "address",
          "name": "",
          "type": "address"
        }
      ],
      "stateMutability": "view",
      "type": "function"
    },
    {
      "inputs": [],
      "name": "pendingOwner",
      "outputs": [
        {
          "internalType": "address",
          "name": "",
          "type": "address"
        }
      ],
      "stateMutability": "view",
      "type": "function"
    },
    {
      "inputs": [],
      "name": "renounceOwnership",
      "outputs": [],
      "stateMutability": "nonpayable",
      "type": "function"
    },
    {
      "inputs": [],
      "name": "symbol",
      "outputs": [
        {
          "internalType": "string",
          "name": "",
          "type": "string"
        }
      ],
      "stateMutability": "view",
      "type": "function"
    },
    {
      "inputs": [],
      "name": "totalSupply",
      "outputs": [
        {
          "internalType": "uint64",
          "name": "",
          "type": "uint64"
        }
      ],
      "stateMutability": "view",
      "type": "function"
    },
    {
      "inputs": [
        {
          "internalType": "address",
          "name": "to",
          "type": "address"
        },
        {
          "internalType": "einput",
          "name": "encryptedAmount",
          "type": "bytes32"
        },
        {
          "internalType": "bytes",
          "name": "inputProof",
          "type": "bytes"
        }
      ],
      "name": "transfer",
      "outputs": [
        {
          "internalType": "bool",
          "name": "",
          "type": "bool"
        }
      ],
      "stateMutability": "nonpayable",
      "type": "function"
    },
    {
      "inputs": [
        {
          "internalType": "address",
          "name": "to",
          "type": "address"
        },
        {
          "internalType": "euint64",
          "name": "amount",
          "type": "uint256"
        }
      ],
      "name": "transfer",
      "outputs": [
        {
          "internalType": "bool",
          "name": "",
          "type": "bool"
        }
      ],
      "stateMutability": "nonpayable",
      "type": "function"
    },
    {
      "inputs": [
        {
          "internalType": "address",
          "name": "from",
          "type": "address"
        },
        {
          "internalType": "address",
          "name": "to",
          "type": "address"
        },
        {
          "internalType": "euint64",
          "name": "amount",
          "type": "uint256"
        }
      ],
      "name": "transferFrom",
      "outputs": [
        {
          "internalType": "bool",
          "name": "",
          "type": "bool"
        }
      ],
      "stateMutability": "nonpayable",
      "type": "function"
    },
    {
      "inputs": [
        {
          "internalType": "address",
          "name": "from",
          "type": "address"
        },
        {
          "internalType": "address",
          "name": "to",
          "type": "address"
        },
        {
          "internalType": "einput",
          "name": "encryptedAmount",
          "type": "bytes32"
        },
        {
          "internalType": "bytes",
          "name": "inputProof",
          "type": "bytes"
        }
      ],
      "name": "transferFrom",
      "outputs": [
        {
          "internalType": "bool",
          "name": "",
          "type": "bool"
        }
      ],
      "stateMutability": "nonpayable",
      "type": "function"
    },
    {
      "inputs": [
        {
          "internalType": "address",
          "name": "newOwner",
          "type": "address"
        }
      ],
      "name": "transferOwnership",
      "outputs": [],
      "stateMutability": "nonpayable",
      "type": "function"
    }
  ],
  "transactionHash": "0x954424290c7c593716f04b62487b6a5121e3605f34febb93099a3ab7b4399cbc",
  "args": [
    "PaymentToken",
    "PT"
  ],
  "numDeployments": 3,
  "solcInputHash": "4e895694bb400f845ef2fb7c9cec7c72",
  "bytecode": "0x60a0604081815234620003d55762001bdd80380380916200002182866200060d565b84398201918181840312620003d55780516001600160401b039390848111620003d557816200005291840162000631565b9160209182820151868111620003d5576200006e920162000631565b935f606085516200007f81620005f1565b8281528285820152828782015201528351906200009c82620005f1565b73fee8407e2f5e3ee68ad77cae98c434e637f516e59081835273687408ab54661ba0b4aef3a44156c616c6955e07938481850152606073fb03be574d14c256d56f09a198b586bdfc0a9de2948589820152739d6891a6240d6130c54ae243d8005063d05fe14b918291015260018060a01b0319947fed8d60e34876f751cc8b014c560745351147d9de11b9347c854e881b128ea60094868654161785557fed8d60e34876f751cc8b014c560745351147d9de11b9347c854e881b128ea60196868854161787557fed8d60e34876f751cc8b014c560745351147d9de11b9347c854e881b128ea60290868254161790557fed8d60e34876f751cc8b014c560745351147d9de11b9347c854e881b128ea60390858254161790553315620005da576001938085541685555f5460018060a01b039133908216175f55813391167f8be0079c531659141344cd1fd0a4f28419497f9722a3daafe3b4186f6b6457e05f80a3865196838811620004f8576002978854918783811c93168015620005cf575b85841014620004d9578190601f938481116200057c575b50859084831160011462000518575f926200050c575b50505f19600383901b1c191690871b1788555b8951848111620004f85760039182548881811c91168015620004ed575b86821014620004d95781811162000491575b50849082116001146200042b57819088999a9b9c5f926200041f575b50505f1982841b1c191690871b1790555b5f945b620002e4575b8888608052516115379081620006a68239608051818181610a780152610d410152f35b60ff851688811162000418575f9082895416908b51631ce2e8d760e31b815260049180838301528682602495600160f91b878301528160449889925af19182156200040e575f92620003d9575b505f5260078652808d5f205584885416803b15620003d5575f9485928f519687938492631974142760e21b84528784015230888401525af18015620003cb57620003a5575b50505060ff80951694851462000391578580950194620002bb565b634e487b7160e01b5f52601160045260245ffd5b858311620003ba57505089525f808062000376565b604190634e487b7160e01b5f52525ffd5b8c513d5f823e3d90fd5b5f80fd5b9091508681813d831162000406575b620003f481836200060d565b81010312620003d55751905f62000331565b503d620003e8565b8e513d5f823e3d90fd5b50620002c1565b015190505f80620002a7565b601f1982169b835f52855f209c5f5b8181106200047b575091899a9b9c9d91848b95941062000463575b505050811b019055620002b8565b01515f1983861b60f8161c191690555f808062000455565b838301518f559d8a019d9287019287016200043a565b835f52855f208280850160051c820192888610620004cf575b0160051c019089905b828110620004c35750506200028b565b5f8155018990620004b3565b92508192620004aa565b634e487b7160e01b5f52602260045260245ffd5b90607f169062000279565b634e487b7160e01b5f52604160045260245ffd5b015190505f8062000249565b90899350601f198316918c5f52875f20925f5b898282106200056557505084116200054c575b505050811b0188556200025c565b01515f1960f88460031b161c191690555f80806200053e565b8385015186558d979095019493840193016200052b565b9091508a5f52855f208480850160051c820192888610620005c5575b918b91869594930160051c01915b828110620005b657505062000233565b5f81558594508b9101620005a6565b9250819262000598565b92607f16926200021c565b8651631e4fbdf760e01b81525f6004820152602490fd5b608081019081106001600160401b03821117620004f857604052565b601f909101601f19168101906001600160401b03821190821017620004f857604052565b919080601f84011215620003d55782516001600160401b038111620004f857602090604051926200066c83601f19601f85011601856200060d565b818452828287010111620003d5575f5b818110620006915750825f9394955001015290565b85810183015184820184015282016200067c56fe60806040818152600480361015610014575f80fd5b5f3560e01c92836306fdde03146107f757508263095ea7b3146107cf57826318160ddd146107a457826323b872dd146107735782632893c5b01461058c578263313ce5671461057157826370a082311461053c578263715018a6146104cf57826379ba5097146104405782637b7e0a5a1461041f5782638da5cb5b146103f957826395d89b41146102e75782639a09435214610283578263a5184baf1461024257508163a9059cbb14610212578163b32c1001146101d9578163dd62ed3e14610190578163e30c39781461016a575063f2fde38b146100f1575f80fd5b346101665760203660031901126101665761010a6108fb565b6101126110fa565b6001600160a01b03809116908173ffffffffffffffffffffffffffffffffffffffff1960015416176001555f54167f38d16b8cac22d99fc7c124b9cd0de2d3fa1faef420bfe791d8c362d765e227005f80a3005b5f80fd5b34610166575f366003190112610166576020906001600160a01b03600154169051908152f35b346101665780600319360112610166576020906101ab6108fb565b6101b3610911565b906001600160a01b038091165f5260058452825f2091165f528252805f20549051908152f35b346101665760209061020a6101fe6102046101f336610955565b949192943691610cd6565b90611125565b906109e6565b505160018152f35b346101665780600319360112610166576020906102396102306108fb565b60243590610d1c565b90519015158152f35b903461016657602036600319011261016657813560065481101561027557602092505f5260088252805f20549051908152f35b505163d65c1f3360e01b8152fd5b90346101665760803660031901126101665761029d6108fb565b916102a6610911565b926064359367ffffffffffffffff8511610166576102e16102d96102d261020a95602098369101610927565b3691610cd6565b604435611125565b91610a38565b9034610166575f366003190112610166578051905f906003549160018360011c90600185169485156103ef575b60209586841081146103dc578388528794939291879082156103ba57505060011461035f575b505061035b929161034c9103856109c4565b519282849384528301906108bd565b0390f35b9085925060035f527fc2575a0e9e593c00f959f8c92f12db2869c3395a3b0502d05e2516446f71f85b915f925b8284106103a2575050508201018161034c61033a565b8054848a01860152889550879490930192810161038c565b60ff19168682015292151560051b8501909201925083915061034c905061033a565b602289634e487b7160e01b5f525260245ffd5b91607f1691610314565b5034610166575f366003190112610166576020906001600160a01b035f54169051908152f35b50346101665760209061020a6101fe61043a6101f336610955565b90610d1c565b9034610166575f36600319011261016657600154916001600160a01b039133838516036104b857505073ffffffffffffffffffffffffffffffffffffffff198092166001555f549133908316175f553391167f8be0079c531659141344cd1fd0a4f28419497f9722a3daafe3b4186f6b6457e05f80a3005b60249250519063118cdaa760e01b82523390820152fd5b34610166575f366003190112610166576104e76110fa565b5f6001600160a01b0373ffffffffffffffffffffffffffffffffffffffff19806001541660015582549081168355167f8be0079c531659141344cd1fd0a4f28419497f9722a3daafe3b4186f6b6457e08280a3005b9034610166576020366003190112610166576020916001600160a01b036105616108fb565b165f528252805f20549051908152f35b5034610166575f366003190112610166576020905160068152f35b346101665781600319360112610166576105a46108fb565b9060243567ffffffffffffffff93848216809203610166576105c46110fa565b6001600160a01b03925f84861695868252602080968482528584205490811561075f575b6064907fed8d60e34876f751cc8b014c560745351147d9de11b9347c854e881b128ea6015416918751958693849263f953e42760e01b8452898401528a6024840152600160f81b60448401525af18015610755575f90610726575b6106629250875f5283875280855f205561065d30826113e6565b6113e6565b845f7fddf252ad1be2c89b69c2b068fc378daa952ba7f163c4a11628f55a4df523b3ef86855183198152a36001549083878360a01c160196871161071357507fffffffff0000000000000000ffffffffffffffffffffffffffffffffffffffff7bffffffffffffffff00000000000000000000000000000000000000007f9109de113672aaca72ede8bc906f7aafabee865311ac020fb15c71edf94a0a01969760a01b1691161760015551908152a2005b601190634e487b7160e01b5f525260245ffd5b508582813d831161074e575b61073c81836109c4565b81010312610166576106629151610643565b503d610732565b84513d5f823e3d90fd5b9050606461076b6114c6565b9190506105e8565b5034610166576060366003190112610166576020906102396107936108fb565b61079b610911565b60443591610a38565b5034610166575f3660031901126101665760209067ffffffffffffffff60015460a01c169051908152f35b50346101665780600319360112610166576020906102396107ee6108fb565b602435906109e6565b8234610166575f366003190112610166575f906002549160018360011c90600185169485156108b3575b60209586841081146103dc578388528794939291879082156103ba57505060011461085857505061035b929161034c9103856109c4565b9085925060025f527f405787fa12a823e0f2b7631cc41b3ba8828b3321ca811111fa75cd3aa3bb5ace915f925b82841061089b575050508201018161034c61033a565b8054848a018601528895508794909301928101610885565b91607f1691610821565b91908251928382525f5b8481106108e7575050825f602080949584010152601f8019910116010190565b6020818301810151848301820152016108c7565b600435906001600160a01b038216820361016657565b602435906001600160a01b038216820361016657565b9181601f840112156101665782359167ffffffffffffffff8311610166576020838186019501011161016657565b6060600319820112610166576004356001600160a01b03811681036101665791602435916044359067ffffffffffffffff82116101665761099891600401610927565b9091565b67ffffffffffffffff81116109b057604052565b634e487b7160e01b5f52604160045260245ffd5b90601f8019910116810190811067ffffffffffffffff8211176109b057604052565b906109fb906109f481610df7565b8233610eb7565b6001600160a01b03604051915f19835216907f8c5be1e5ebec7d5bd14f71427d1e84f3dd0314c0f7b2291e5b200ac8c7c3b92560203392a3600190565b91610a4281610df7565b6001600160a01b039182841693845f5260209360058552604094855f20335f528152855f205496610a738887611246565b9260ff7f00000000000000000000000000000000000000000000000000000000000000001680600211610cc557905f9182805260078552610ac08a842054600285528b8520549088611460565b93835260048552610ad48a8420548a611246565b937fed8d60e34876f751cc8b014c560745351147d9de11b9347c854e881b128ea60191868c6024868654169151809881936309c00ffd60e11b83528b60048401525af1948515610cbb575f95610c8c575b505f90878d60648b8888541692519586938492630ccd46b160e31b9c8d8552600485015260248401528160448401525af1918215610c82575f92610c53575b50600111610c42579286959492610baa610b8f5f948f976064986001885260078c5287205490611460565b610b988161130d565b50610ba38c826113e6565b33906113e6565b54168b5197889586948552600485015260248401528160448401525af1958615610c3957505f95610c03575b5050610bf9610bf286610bec86610bfe9961134e565b87611460565b3383610eb7565b610f3a565b600190565b9080969550813d8311610c32575b610c1b81836109c4565b810103126101665793519293610bf9610bf2610bd6565b503d610c11565b513d5f823e3d90fd5b8b5163d65c1f3360e01b8152600490fd5b9091508781813d8311610c7b575b610c6b81836109c4565b810103126101665751905f610b64565b503d610c61565b8d513d5f823e3d90fd5b9094508681813d8311610cb4575b610ca481836109c4565b810103126101665751935f610b25565b503d610c9a565b8c513d5f823e3d90fd5b885163d65c1f3360e01b8152600490fd5b92919267ffffffffffffffff82116109b05760405191610d00601f8201601f1916602001846109c4565b829481845281830111610166578281602093845f960137010152565b90610d2681610df7565b335f526004602052610d3c60405f205482611246565b9060ff7f000000000000000000000000000000000000000000000000000000000000000016600111610de55760076020527f6d5257204ebe7d88fd91ae87941cb2dd9d8062b64ae5a2bd2d28ec40b9fbf6df5460015f527fb39221ace053465ec3453ce2b36430bd138b997ecea25c1043da0c366812b82854610bfe9491610ddf918391610dcb919087611460565b610dd48161130d565b5061065d33826113e6565b33610f3a565b60405163d65c1f3360e01b8152600490fd5b7fed8d60e34876f751cc8b014c560745351147d9de11b9347c854e881b128ea60054604051632fd514cd60e11b81526004810192909252336024830152602090829060449082906001600160a01b03165afa908115610eac575f91610e71575b5015610e5f57565b604051632fa38b3f60e01b8152600490fd5b90506020813d602011610ea4575b81610e8c602093836109c4565b8101031261016657518015158103610166575f610e57565b3d9150610e7f565b6040513d5f823e3d90fd5b92916001600160a01b0393848116948515610f21578316948515610f085790610f06949561065d925f52600560205260405f20905f526020528260405f2055610f0030846113e6565b826113e6565b565b604051634a1406b160e11b815260048101879052602490fd5b60405163e602df0560e01b815260048101879052602490fd5b9291926001600160a01b038082169384156110e1578184169586156110c85790610f6c91610f666114c6565b91611460565b855f5260049260209484865260409386855f205491859083156110b8575b86156110a4575b6064907fed8d60e34876f751cc8b014c560745351147d9de11b9347c854e881b128ea6015416935f8951958694859363f953e42760e01b85528d85015260248401528160448401525af190811561109a575f91611069575b509261100b61101a9261102f958b5f52888a5280885f205561065d30826113e6565b875f52858752845f205461134e565b865f5284865280845f205561065d30826113e6565b6006545f198101929083116107135750519081527fddf252ad1be2c89b69c2b068fc378daa952ba7f163c4a11628f55a4df523b3ef9190a3565b9390508684813d8311611093575b61108181836109c4565b8101031261016657925161100b610fe9565b503d611077565b85513d5f823e3d90fd5b905060646110b06114c6565b919050610f91565b92506110c26114c6565b92610f8a565b60405163ec442f0560e01b815260048101889052602490fd5b604051634b637e8f60e11b815260048101869052602490fd5b6001600160a01b035f5416330361110d57565b60405163118cdaa760e01b8152336004820152602490fd5b6020611189926001600160a01b0392837fed8d60e34876f751cc8b014c560745351147d9de11b9347c854e881b128ea6015416905f6040518097819582946302e817ff60e41b845260048401523360248401526080604484015260848301906108bd565b600560f81b606483015203925af1918215610eac575f92611212575b507fed8d60e34876f751cc8b014c560745351147d9de11b9347c854e881b128ea6005416803b15610166576040516346ce4e4960e11b815260048101839052336024820152905f908290604490829084905af18015610eac57611206575090565b61120f9061099c565b90565b9091506020813d60201161123e575b8161122e602093836109c4565b810103126101665751905f6111a5565b3d9150611221565b9081156112fd575b80156112eb575b60209060646001600160a01b037fed8d60e34876f751cc8b014c560745351147d9de11b9347c854e881b128ea6015416935f60405195869485936334a6d7b960e11b8552600485015260248401528160448401525af1908115610eac575f916112bc575090565b90506020813d6020116112e3575b816112d7602093836109c4565b81010312610166575190565b3d91506112ca565b5060206112f66114c6565b9050611255565b90506113076114c6565b9061124e565b60065491905f19831461133a57610f069060018401600655835f5260086020528060405f205530906113e6565b634e487b7160e01b5f52601160045260245ffd5b9081156113d6575b80156113c4575b60209060646001600160a01b037fed8d60e34876f751cc8b014c560745351147d9de11b9347c854e881b128ea6015416935f6040519586948593638c14cc2160e01b8552600485015260248401528160448401525af1908115610eac575f916112bc575090565b5060206113cf6114c6565b905061135d565b90506113e06114c6565b90611356565b6001600160a01b037fed8d60e34876f751cc8b014c560745351147d9de11b9347c854e881b128ea600541691823b1561016657604051631974142760e21b815260048101929092526001600160a01b03166024820152905f908290604490829084905af18015610eac576114575750565b610f069061099c565b9060646020925f6001600160a01b037fed8d60e34876f751cc8b014c560745351147d9de11b9347c854e881b128ea6015416604051968795869463cb3b940760e01b86526004860152602485015260448401525af1908115610eac575f916112bc575090565b5f60206001600160a01b037fed8d60e34876f751cc8b014c560745351147d9de11b9347c854e881b128ea6015416604460405180948193631ce2e8d760e31b8352816004840152600560f81b60248401525af1908115610eac575f916112bc57509056fea164736f6c6343000818000a",
  "devdoc": {
    "details": "It supports typical ERC20 functionality such as transferring tokens, minting, and setting allowances,but uses encrypted data types.",
    "errors": {
      "ERC20InsufficientAllowance(address,uint256,uint256)": [
        {
          "details": "Indicates a failure with the `spender`s `allowance`. Used in transfers.",
          "params": {
            "allowance": "Amount of tokens a `spender` is allowed to operate with.",
            "needed": "Minimum amount required to perform a transfer.",
            "spender": "Address that may be allowed to operate on tokens without being their owner."
          }
        }
      ],
      "ERC20InsufficientBalance(address,uint256,uint256)": [
        {
          "details": "Indicates an error related to the current `balance` of a `sender`. Used in transfers.",
          "params": {
            "balance": "Current balance for the interacting account.",
            "needed": "Minimum amount required to perform a transfer.",
            "sender": "Address whose tokens are being transferred."
          }
        }
      ],
      "ERC20InvalidApprover(address)": [
        {
          "details": "Indicates a failure with the `approver` of a token to be approved. Used in approvals.",
          "params": {
            "approver": "Address initiating an approval operation."
          }
        }
      ],
      "ERC20InvalidReceiver(address)": [
        {
          "details": "Indicates a failure with the token `receiver`. Used in transfers.",
          "params": {
            "receiver": "Address to which tokens are being transferred."
          }
        }
      ],
      "ERC20InvalidSender(address)": [
        {
          "details": "Indicates a failure with the token `sender`. Used in transfers.",
          "params": {
            "sender": "Address whose tokens are being transferred."
          }
        }
      ],
      "ERC20InvalidSpender(address)": [
        {
          "details": "Indicates a failure with the `spender` to be approved. Used in approvals.",
          "params": {
            "spender": "Address that may be allowed to operate on tokens without being their owner."
          }
        }
      ],
      "OwnableInvalidOwner(address)": [
        {
          "details": "The owner is not a valid owner account. (eg. `address(0)`)"
        }
      ],
      "OwnableUnauthorizedAccount(address)": [
        {
          "details": "The caller account is not authorized to perform an operation."
        }
      ]
    },
    "events": {
      "Approval(address,address,uint256)": {
        "params": {
          "owner": "Owner address.",
          "placeholder": "Placeholder.",
          "spender": "Spender address."
        }
      },
      "Transfer(address,address,uint256)": {
        "params": {
          "from": "Sender address.",
          "to": "Receiver address.",
          "transferId": "If the implementation does not support error handling, it must be set to a default                      placeholder (typically equal to max(uint256). However, it must be set to a transferId                      if the implementation supports encrypted error handling."
        }
      }
    },
    "kind": "dev",
    "methods": {
      "acceptOwnership()": {
        "details": "The new owner accepts the ownership transfer."
      },
      "constructor": {
        "params": {
          "name_": "The name of the token",
          "symbol_": "The symbol of the token"
        }
      },
      "getErrorCodeForTransferId(uint256)": {
        "params": {
          "transferId": "Transfer id. It can be read from the `Transfer` event."
        },
        "returns": {
          "errorCode": " Encrypted error code."
        }
      },
      "mint(address,uint64)": {
        "params": {
          "amount": "Amount of tokens to mint.",
          "to": "Address to mint tokens to."
        }
      },
      "owner()": {
        "details": "Returns the address of the current owner."
      },
      "pendingOwner()": {
        "details": "Returns the address of the pending owner."
      },
      "renounceOwnership()": {
        "details": "Leaves the contract without owner. It will not be possible to call `onlyOwner` functions. Can only be called by the current owner. NOTE: Renouncing ownership will leave the contract without an owner, thereby disabling any functionality that is only available to the owner."
      },
      "transferOwnership(address)": {
        "details": "Starts the ownership transfer of the contract to a new account. Replaces the pending transfer if there is one. Can only be called by the current owner. Setting `newOwner` to the zero address is allowed; this can be used to cancel an initiated ownership transfer."
      }
    },
    "version": 1
  },
  "userdoc": {
    "errors": {
      "ErrorIndexInvalid()": [
        {
          "notice": "Returned if the error index is invalid."
        }
      ],
      "ErrorIndexIsNull()": [
        {
          "notice": "Returned if the error index is null."
        }
      ],
      "TFHESenderNotAllowed()": [
        {
          "notice": "Returned when the `sender` is not allowed to access a value."
        }
      ],
      "TotalNumberErrorCodesEqualToZero()": [
        {
          "notice": "Returned if the total number of errors is equal to zero."
        }
      ]
    },
    "events": {
      "Approval(address,address,uint256)": {
        "notice": "Emitted when the allowance of a `spender` for an `owner` is set by                      a call to {approve}."
      },
      "Mint(address,uint64)": {
        "notice": "Emitted when `amount` tokens are minted to one account (`to`)."
      },
      "Transfer(address,address,uint256)": {
        "notice": "Emitted when tokens are moved from one account (`from`) to                      another (`to`)."
      }
    },
    "kind": "user",
    "methods": {
      "allowance(address,address)": {
        "notice": "See {IConfidentialERC20-allowance}."
      },
      "approve(address,bytes32,bytes)": {
        "notice": "See {IConfidentialERC20-approve}."
      },
      "approve(address,uint256)": {
        "notice": "See {IConfidentialERC20-approve}."
      },
      "balanceOf(address)": {
        "notice": "See {IConfidentialERC20-balanceOf}."
      },
      "constructor": {
        "notice": "Constructor to initialize the token's name and symbol, and set up the owner"
      },
      "decimals()": {
        "notice": "See {IConfidentialERC20-decimals}."
      },
      "getErrorCodeForTransferId(uint256)": {
        "notice": "Return the error for a transfer id."
      },
      "mint(address,uint64)": {
        "notice": "Mint tokens."
      },
      "name()": {
        "notice": "See {IConfidentialERC20-name}."
      },
      "symbol()": {
        "notice": "See {IConfidentialERC20-symbol}."
      },
      "totalSupply()": {
        "notice": "See {IConfidentialERC20-totalSupply}."
      },
      "transfer(address,bytes32,bytes)": {
        "notice": "See {IConfidentialERC20-transfer}."
      },
      "transfer(address,uint256)": {
        "notice": "See {IConfidentialERC20-transfer}."
      },
      "transferFrom(address,address,bytes32,bytes)": {
        "notice": "See {IConfidentialERC20-transferFrom}."
      },
      "transferFrom(address,address,uint256)": {
        "notice": "See {IConfidentialERC20-transferFrom}."
      }
    },
    "notice": "This contract implements an encrypted ERC20-like token with confidential balances using Zama's FHE library.",
    "version": 1
  },
  "storageLayout": {
    "storage": [
      {
        "astId": 8,
        "contract": "contracts/erc20/MyConfidentialERC20.sol:MyConfidentialERC20",
        "label": "_owner",
        "offset": 0,
        "slot": "0",
        "type": "t_address"
      },
      {
        "astId": 156,
        "contract": "contracts/erc20/MyConfidentialERC20.sol:MyConfidentialERC20",
        "label": "_pendingOwner",
        "offset": 0,
        "slot": "1",
        "type": "t_address"
      },
      {
        "astId": 3361,
        "contract": "contracts/erc20/MyConfidentialERC20.sol:MyConfidentialERC20",
        "label": "_totalSupply",
        "offset": 20,
        "slot": "1",
        "type": "t_uint64"
      },
      {
        "astId": 3364,
        "contract": "contracts/erc20/MyConfidentialERC20.sol:MyConfidentialERC20",
        "label": "_name",
        "offset": 0,
        "slot": "2",
        "type": "t_string_storage"
      },
      {
        "astId": 3367,
        "contract": "contracts/erc20/MyConfidentialERC20.sol:MyConfidentialERC20",
        "label": "_symbol",
        "offset": 0,
        "slot": "3",
        "type": "t_string_storage"
      },
      {
        "astId": 3373,
        "contract": "contracts/erc20/MyConfidentialERC20.sol:MyConfidentialERC20",
        "label": "_balances",
        "offset": 0,
        "slot": "4",
        "type": "t_mapping(t_address,t_userDefinedValueType(euint64)7779)"
      },
      {
        "astId": 3381,
        "contract": "contracts/erc20/MyConfidentialERC20.sol:MyConfidentialERC20",
        "label": "_allowances",
        "offset": 0,
        "slot": "5",
        "type": "t_mapping(t_address,t_mapping(t_address,t_userDefinedValueType(euint64)7779))"
      },
      {
        "astId": 4577,
        "contract": "contracts/erc20/MyConfidentialERC20.sol:MyConfidentialERC20",
        "label": "_errorCounter",
        "offset": 0,
        "slot": "6",
        "type": "t_uint256"
      },
      {
        "astId": 4583,
        "contract": "contracts/erc20/MyConfidentialERC20.sol:MyConfidentialERC20",
        "label": "_errorCodeDefinitions",
        "offset": 0,
        "slot": "7",
        "type": "t_mapping(t_uint8,t_userDefinedValueType(euint8)7773)"
      },
      {
        "astId": 4589,
        "contract": "contracts/erc20/MyConfidentialERC20.sol:MyConfidentialERC20",
        "label": "_errorCodesEmitted",
        "offset": 0,
        "slot": "8",
        "type": "t_mapping(t_uint256,t_userDefinedValueType(euint8)7773)"
      }
    ],
    "types": {
      "t_address": {
        "encoding": "inplace",
        "label": "address",
        "numberOfBytes": "20"
      },
      "t_mapping(t_address,t_mapping(t_address,t_userDefinedValueType(euint64)7779))": {
        "encoding": "mapping",
        "key": "t_address",
        "label": "mapping(address => mapping(address => euint64))",
        "numberOfBytes": "32",
        "value": "t_mapping(t_address,t_userDefinedValueType(euint64)7779)"
      },
      "t_mapping(t_address,t_userDefinedValueType(euint64)7779)": {
        "encoding": "mapping",
        "key": "t_address",
        "label": "mapping(address => euint64)",
        "numberOfBytes": "32",
        "value": "t_userDefinedValueType(euint64)7779"
      },
      "t_mapping(t_uint256,t_userDefinedValueType(euint8)7773)": {
        "encoding": "mapping",
        "key": "t_uint256",
        "label": "mapping(uint256 => euint8)",
        "numberOfBytes": "32",
        "value": "t_userDefinedValueType(euint8)7773"
      },
      "t_mapping(t_uint8,t_userDefinedValueType(euint8)7773)": {
        "encoding": "mapping",
        "key": "t_uint8",
        "label": "mapping(uint8 => euint8)",
        "numberOfBytes": "32",
        "value": "t_userDefinedValueType(euint8)7773"
      },
      "t_string_storage": {
        "encoding": "bytes",
        "label": "string",
        "numberOfBytes": "32"
      },
      "t_uint256": {
        "encoding": "inplace",
        "label": "uint256",
        "numberOfBytes": "32"
      },
      "t_uint64": {
        "encoding": "inplace",
        "label": "uint64",
        "numberOfBytes": "8"
      },
      "t_uint8": {
        "encoding": "inplace",
        "label": "uint8",
        "numberOfBytes": "1"
      },
      "t_userDefinedValueType(euint64)7779": {
        "encoding": "inplace",
        "label": "euint64",
        "numberOfBytes": "32"
      },
      "t_userDefinedValueType(euint8)7773": {
        "encoding": "inplace",
        "label": "euint8",
        "numberOfBytes": "32"
      }
    }
  }
}